{
  "contractName": "Pokethpastes",
  "abi": [
    {
      "anonymous": false,
      "inputs": [
        {
          "indexed": false,
          "name": "pokethpaste",
          "type": "string"
        }
      ],
      "name": "PokethpasteUploaded",
      "type": "event",
      "signature": "0xfd25c7e04f4f3b67152a5bdd2eea1f463b7f0ce573dbe32ddf6aabefcceed0a9"
    },
    {
      "constant": false,
      "inputs": [
        {
          "name": "pokethpaste",
          "type": "string"
        }
      ],
      "name": "publishPokethpaste",
      "outputs": [
        {
          "name": "",
          "type": "bool"
        }
      ],
      "payable": false,
      "stateMutability": "nonpayable",
      "type": "function",
      "signature": "0x3d2220ee"
    }
  ],
  "bytecode": "0x608060405234801561001057600080fd5b506101f9806100206000396000f3fe608060405260043610610041576000357c0100000000000000000000000000000000000000000000000000000000900463ffffffff1680633d2220ee14610046575b600080fd5b34801561005257600080fd5b5061010c6004803603602081101561006957600080fd5b810190808035906020019064010000000081111561008657600080fd5b82018360208201111561009857600080fd5b803590602001918460018302840111640100000000831117156100ba57600080fd5b91908080601f016020809104026020016040519081016040528093929190818152602001838380828437600081840152601f19601f820116905080830192505050505050509192919290505050610126565b604051808215151515815260200191505060405180910390f35b60007ffd25c7e04f4f3b67152a5bdd2eea1f463b7f0ce573dbe32ddf6aabefcceed0a9826040518080602001828103825283818151815260200191508051906020019080838360005b8381101561018a57808201518184015260208101905061016f565b50505050905090810190601f1680156101b75780820380516001836020036101000a031916815260200191505b509250505060405180910390a16001905091905056fea165627a7a72305820b8ae8aa0de7cdb0c116cd631b40408d95cb50bbe1949c8eef0e0632c0bc6e43d0029",
  "source": "pragma solidity ^0.5.0;\n\n/*\n * Pokethpastes.sol\n *------------------\n *\n * An incredibly simple contract, simply pushes the paste onto an event and returns on success.\n *\n */\n\n\ncontract Pokethpastes {\n\n    function publishPokethpaste(string memory pokethpaste) public returns (bool) {\n        emit PokethpasteUploaded(pokethpaste);\n        return true;\n    }    \n\n    event PokethpasteUploaded(string pokethpaste);\n\n}\n",
  "sourcePath": "/home/luiserebii/pokethpastes/contracts/pokethpastes/pokethpaste.sol",
  "compiler": {
    "name": "solc",
    "version": "0.5.0+commit.1d4f565a.Emscripten.clang"
  },
  "schemaVersion": "3.0.6",
  "updatedAt": "2019-04-04T04:40:00.367Z",
  "devdoc": {
    "methods": {}
  },
  "userdoc": {
    "methods": {}
  }
}